{
  "_format": "hh-sol-artifact-1",
  "contractName": "CrowdFunding",
  "sourceName": "contracts/CrowdFunding.sol",
  "abi": [
    {
      "anonymous": false,
      "inputs": [
        {
          "indexed": true,
          "internalType": "uint256",
          "name": "campaignId",
          "type": "uint256"
        }
      ],
      "name": "CampaignClosed",
      "type": "event"
    },
    {
      "anonymous": false,
      "inputs": [
        {
          "indexed": true,
          "internalType": "address",
          "name": "owner",
          "type": "address"
        },
        {
          "indexed": true,
          "internalType": "uint256",
          "name": "campaignId",
          "type": "uint256"
        },
        {
          "indexed": false,
          "internalType": "string",
          "name": "title",
          "type": "string"
        }
      ],
      "name": "CampaignCreated",
      "type": "event"
    },
    {
      "anonymous": false,
      "inputs": [
        {
          "indexed": true,
          "internalType": "uint256",
          "name": "campaignId",
          "type": "uint256"
        },
        {
          "indexed": true,
          "internalType": "address",
          "name": "donator",
          "type": "address"
        },
        {
          "indexed": false,
          "internalType": "uint256",
          "name": "amount",
          "type": "uint256"
        }
      ],
      "name": "DonateReceived",
      "type": "event"
    },
    {
      "anonymous": false,
      "inputs": [
        {
          "indexed": true,
          "internalType": "uint256",
          "name": "campaignId",
          "type": "uint256"
        },
        {
          "indexed": true,
          "internalType": "address",
          "name": "owner",
          "type": "address"
        },
        {
          "indexed": false,
          "internalType": "uint256",
          "name": "amount",
          "type": "uint256"
        }
      ],
      "name": "Withdrawal",
      "type": "event"
    },
    {
      "inputs": [],
      "name": "campaignCount",
      "outputs": [
        {
          "internalType": "uint256",
          "name": "",
          "type": "uint256"
        }
      ],
      "stateMutability": "view",
      "type": "function"
    },
    {
      "inputs": [
        {
          "internalType": "uint256",
          "name": "",
          "type": "uint256"
        }
      ],
      "name": "campaigns",
      "outputs": [
        {
          "internalType": "address",
          "name": "owner",
          "type": "address"
        },
        {
          "internalType": "string",
          "name": "title",
          "type": "string"
        },
        {
          "internalType": "string",
          "name": "description",
          "type": "string"
        },
        {
          "internalType": "string",
          "name": "imageUrl",
          "type": "string"
        },
        {
          "internalType": "uint256",
          "name": "target",
          "type": "uint256"
        },
        {
          "internalType": "uint256",
          "name": "collectedAmount",
          "type": "uint256"
        },
        {
          "internalType": "uint256",
          "name": "withdrawedAmount",
          "type": "uint256"
        },
        {
          "internalType": "uint256",
          "name": "deadline",
          "type": "uint256"
        }
      ],
      "stateMutability": "view",
      "type": "function"
    },
    {
      "inputs": [
        {
          "internalType": "uint256",
          "name": "_id",
          "type": "uint256"
        }
      ],
      "name": "closeCampaign",
      "outputs": [],
      "stateMutability": "nonpayable",
      "type": "function"
    },
    {
      "inputs": [
        {
          "internalType": "string",
          "name": "_title",
          "type": "string"
        },
        {
          "internalType": "string",
          "name": "_description",
          "type": "string"
        },
        {
          "internalType": "string",
          "name": "_imageUrl",
          "type": "string"
        },
        {
          "internalType": "uint256",
          "name": "_target",
          "type": "uint256"
        },
        {
          "internalType": "uint256",
          "name": "_deadline",
          "type": "uint256"
        }
      ],
      "name": "createCampaign",
      "outputs": [
        {
          "internalType": "uint256",
          "name": "",
          "type": "uint256"
        }
      ],
      "stateMutability": "nonpayable",
      "type": "function"
    },
    {
      "inputs": [
        {
          "internalType": "uint256",
          "name": "_id",
          "type": "uint256"
        }
      ],
      "name": "donate",
      "outputs": [],
      "stateMutability": "payable",
      "type": "function"
    },
    {
      "inputs": [],
      "name": "getCampaigns",
      "outputs": [
        {
          "components": [
            {
              "internalType": "address",
              "name": "owner",
              "type": "address"
            },
            {
              "internalType": "string",
              "name": "title",
              "type": "string"
            },
            {
              "internalType": "string",
              "name": "description",
              "type": "string"
            },
            {
              "internalType": "string",
              "name": "imageUrl",
              "type": "string"
            },
            {
              "internalType": "uint256",
              "name": "target",
              "type": "uint256"
            },
            {
              "internalType": "uint256",
              "name": "collectedAmount",
              "type": "uint256"
            },
            {
              "internalType": "uint256",
              "name": "withdrawedAmount",
              "type": "uint256"
            },
            {
              "internalType": "uint256",
              "name": "deadline",
              "type": "uint256"
            },
            {
              "components": [
                {
                  "internalType": "address",
                  "name": "donator",
                  "type": "address"
                },
                {
                  "internalType": "uint256",
                  "name": "amount",
                  "type": "uint256"
                }
              ],
              "internalType": "struct CrowdFunding.Donation[]",
              "name": "donations",
              "type": "tuple[]"
            }
          ],
          "internalType": "struct CrowdFunding.Campaign[]",
          "name": "",
          "type": "tuple[]"
        }
      ],
      "stateMutability": "view",
      "type": "function"
    },
    {
      "inputs": [
        {
          "internalType": "uint256",
          "name": "_id",
          "type": "uint256"
        }
      ],
      "name": "getDonations",
      "outputs": [
        {
          "components": [
            {
              "internalType": "address",
              "name": "donator",
              "type": "address"
            },
            {
              "internalType": "uint256",
              "name": "amount",
              "type": "uint256"
            }
          ],
          "internalType": "struct CrowdFunding.Donation[]",
          "name": "",
          "type": "tuple[]"
        }
      ],
      "stateMutability": "view",
      "type": "function"
    },
    {
      "inputs": [],
      "name": "totalCollected",
      "outputs": [
        {
          "internalType": "uint256",
          "name": "",
          "type": "uint256"
        }
      ],
      "stateMutability": "view",
      "type": "function"
    },
    {
      "inputs": [
        {
          "internalType": "uint256",
          "name": "_id",
          "type": "uint256"
        },
        {
          "internalType": "uint256",
          "name": "_amount",
          "type": "uint256"
        }
      ],
      "name": "withdraw",
      "outputs": [],
      "stateMutability": "nonpayable",
      "type": "function"
    }
  ],
  "bytecode": "0x6080604052348015600f57600080fd5b50611e068061001f6000396000f3fe6080604052600436106100865760003560e01c8063980f2e6611610059578063980f2e6614610160578063a6b036331461019d578063b0e1c1e1146101c8578063e29eb836146101f1578063f14faf6f1461021c57610086565b8063141961bc1461008b578063441a3e70146100cf578063596d9ce2146100f85780637274e30d14610135575b600080fd5b34801561009757600080fd5b506100b260048036038101906100ad9190610f7a565b610238565b6040516100c6989796959493929190611087565b60405180910390f35b3480156100db57600080fd5b506100f660048036038101906100f1919061111a565b610438565b005b34801561010457600080fd5b5061011f600480360381019061011a9190610f7a565b610601565b60405161012c9190611256565b60405180910390f35b34801561014157600080fd5b5061014a6106d6565b6040516101579190611278565b60405180910390f35b34801561016c57600080fd5b50610187600480360381019061018291906113c8565b6106dc565b6040516101949190611278565b60405180910390f35b3480156101a957600080fd5b506101b26108db565b6040516101bf91906116ec565b60405180910390f35b3480156101d457600080fd5b506101ef60048036038101906101ea9190610f7a565b610c89565b005b3480156101fd57600080fd5b50610206610d80565b6040516102139190611278565b60405180910390f35b61023660048036038101906102319190610f7a565b610d86565b005b60026020528060005260406000206000915090508060000160009054906101000a900473ffffffffffffffffffffffffffffffffffffffff16908060010180546102819061173d565b80601f01602080910402602001604051908101604052809291908181526020018280546102ad9061173d565b80156102fa5780601f106102cf576101008083540402835291602001916102fa565b820191906000526020600020905b8154815290600101906020018083116102dd57829003601f168201915b50505050509080600201805461030f9061173d565b80601f016020809104026020016040519081016040528092919081815260200182805461033b9061173d565b80156103885780601f1061035d57610100808354040283529160200191610388565b820191906000526020600020905b81548152906001019060200180831161036b57829003601f168201915b50505050509080600301805461039d9061173d565b80601f01602080910402602001604051908101604052809291908181526020018280546103c99061173d565b80156104165780601f106103eb57610100808354040283529160200191610416565b820191906000526020600020905b8154815290600101906020018083116103f957829003601f168201915b5050505050908060040154908060050154908060060154908060070154905088565b816002600082815260200190815260200160002060000160009054906101000a900473ffffffffffffffffffffffffffffffffffffffff1673ffffffffffffffffffffffffffffffffffffffff163373ffffffffffffffffffffffffffffffffffffffff16146104dd576040517f08c379a00000000000000000000000000000000000000000000000000000000081526004016104d4906117e0565b60405180910390fd5b600060026000858152602001908152602001600020905080600601548160050154610508919061182f565b83111561054a576040517f08c379a0000000000000000000000000000000000000000000000000000000008152600401610541906118fb565b60405180910390fd5b8281600601600082825461055e919061191b565b925050819055503373ffffffffffffffffffffffffffffffffffffffff166108fc849081150290604051600060405180830381858888f193505050501580156105ab573d6000803e3d6000fd5b503373ffffffffffffffffffffffffffffffffffffffff16847f37e8063b72a944a76de602f32b82fd8c2a1c6f99564c727ffaf913c7762cd420856040516105f39190611278565b60405180910390a350505050565b606060026000838152602001908152602001600020600801805480602002602001604051908101604052809291908181526020016000905b828210156106cb57838290600052602060002090600202016040518060400160405290816000820160009054906101000a900473ffffffffffffffffffffffffffffffffffffffff1673ffffffffffffffffffffffffffffffffffffffff1673ffffffffffffffffffffffffffffffffffffffff16815260200160018201548152505081526020019060010190610639565b505050509050919050565b60015481565b6000428211610720576040517f08c379a00000000000000000000000000000000000000000000000000000000081526004016107179061199b565b60405180910390fd5b60008311610763576040517f08c379a000000000000000000000000000000000000000000000000000000000815260040161075a90611a07565b60405180910390fd5b61012c855111156107a9576040517f08c379a00000000000000000000000000000000000000000000000000000000081526004016107a090611a99565b60405180910390fd5b60006002600060015481526020019081526020016000209050338160000160006101000a81548173ffffffffffffffffffffffffffffffffffffffff021916908373ffffffffffffffffffffffffffffffffffffffff160217905550868160010190816108169190611c65565b50858160020190816108289190611c65565b508481600301908161083a9190611c65565b508281600701819055508381600401819055506001600081548092919061086090611d37565b919050555060018054610873919061182f565b3373ffffffffffffffffffffffffffffffffffffffff167f0ebe94f361ce4504efd3def3f3b3536780036866339485a26cf48e95ff61b6a5896040516108b99190611d7f565b60405180910390a3600180546108cf919061182f565b91505095945050505050565b6060600060015467ffffffffffffffff8111156108fb576108fa61129d565b5b60405190808252806020026020018201604052801561093457816020015b610921610ece565b8152602001906001900390816109195790505b50905060005b600154811015610c815760026000828152602001908152602001600020604051806101200160405290816000820160009054906101000a900473ffffffffffffffffffffffffffffffffffffffff1673ffffffffffffffffffffffffffffffffffffffff1673ffffffffffffffffffffffffffffffffffffffff1681526020016001820180546109c99061173d565b80601f01602080910402602001604051908101604052809291908181526020018280546109f59061173d565b8015610a425780601f10610a1757610100808354040283529160200191610a42565b820191906000526020600020905b815481529060010190602001808311610a2557829003601f168201915b50505050508152602001600282018054610a5b9061173d565b80601f0160208091040260200160405190810160405280929190818152602001828054610a879061173d565b8015610ad45780601f10610aa957610100808354040283529160200191610ad4565b820191906000526020600020905b815481529060010190602001808311610ab757829003601f168201915b50505050508152602001600382018054610aed9061173d565b80601f0160208091040260200160405190810160405280929190818152602001828054610b199061173d565b8015610b665780601f10610b3b57610100808354040283529160200191610b66565b820191906000526020600020905b815481529060010190602001808311610b4957829003601f168201915b505050505081526020016004820154815260200160058201548152602001600682015481526020016007820154815260200160088201805480602002602001604051908101604052809291908181526020016000905b82821015610c4e57838290600052602060002090600202016040518060400160405290816000820160009054906101000a900473ffffffffffffffffffffffffffffffffffffffff1673ffffffffffffffffffffffffffffffffffffffff1673ffffffffffffffffffffffffffffffffffffffff16815260200160018201548152505081526020019060010190610bbc565b5050505081525050828281518110610c6957610c68611da1565b5b6020026020010181905250808060010191505061093a565b508091505090565b806002600082815260200190815260200160002060000160009054906101000a900473ffffffffffffffffffffffffffffffffffffffff1673ffffffffffffffffffffffffffffffffffffffff163373ffffffffffffffffffffffffffffffffffffffff1614610d2e576040517f08c379a0000000000000000000000000000000000000000000000000000000008152600401610d25906117e0565b60405180910390fd5b6000600260008481526020019081526020016000209050428160070181905550827f5e6eb33a418de5dbbc17f989f7ae362cdfbb1748c5d603137c767027a354edbc60405160405180910390a2505050565b60005481565b60006002600083815260200190815260200160002090508060080160405180604001604052803373ffffffffffffffffffffffffffffffffffffffff16815260200134815250908060018154018082558091505060019003906000526020600020906002020160009091909190915060008201518160000160006101000a81548173ffffffffffffffffffffffffffffffffffffffff021916908373ffffffffffffffffffffffffffffffffffffffff16021790555060208201518160010155505034816005016000828254610e5c919061191b565b9250508190555034600080828254610e74919061191b565b925050819055503373ffffffffffffffffffffffffffffffffffffffff16827fd043fbd3e5b60b9520e258ac2112e48c46f68e7d1770c911ba440b91e2c8c6c534604051610ec29190611278565b60405180910390a35050565b604051806101200160405280600073ffffffffffffffffffffffffffffffffffffffff16815260200160608152602001606081526020016060815260200160008152602001600081526020016000815260200160008152602001606081525090565b6000604051905090565b600080fd5b600080fd5b6000819050919050565b610f5781610f44565b8114610f6257600080fd5b50565b600081359050610f7481610f4e565b92915050565b600060208284031215610f9057610f8f610f3a565b5b6000610f9e84828501610f65565b91505092915050565b600073ffffffffffffffffffffffffffffffffffffffff82169050919050565b6000610fd282610fa7565b9050919050565b610fe281610fc7565b82525050565b600081519050919050565b600082825260208201905092915050565b60005b83811015611022578082015181840152602081019050611007565b60008484015250505050565b6000601f19601f8301169050919050565b600061104a82610fe8565b6110548185610ff3565b9350611064818560208601611004565b61106d8161102e565b840191505092915050565b61108181610f44565b82525050565b60006101008201905061109d600083018b610fd9565b81810360208301526110af818a61103f565b905081810360408301526110c3818961103f565b905081810360608301526110d7818861103f565b90506110e66080830187611078565b6110f360a0830186611078565b61110060c0830185611078565b61110d60e0830184611078565b9998505050505050505050565b6000806040838503121561113157611130610f3a565b5b600061113f85828601610f65565b925050602061115085828601610f65565b9150509250929050565b600081519050919050565b600082825260208201905092915050565b6000819050602082019050919050565b61118f81610fc7565b82525050565b61119e81610f44565b82525050565b6040820160008201516111ba6000850182611186565b5060208201516111cd6020850182611195565b50505050565b60006111df83836111a4565b60408301905092915050565b6000602082019050919050565b60006112038261115a565b61120d8185611165565b935061121883611176565b8060005b8381101561124957815161123088826111d3565b975061123b836111eb565b92505060018101905061121c565b5085935050505092915050565b6000602082019050818103600083015261127081846111f8565b905092915050565b600060208201905061128d6000830184611078565b92915050565b600080fd5b600080fd5b7f4e487b7100000000000000000000000000000000000000000000000000000000600052604160045260246000fd5b6112d58261102e565b810181811067ffffffffffffffff821117156112f4576112f361129d565b5b80604052505050565b6000611307610f30565b905061131382826112cc565b919050565b600067ffffffffffffffff8211156113335761133261129d565b5b61133c8261102e565b9050602081019050919050565b82818337600083830152505050565b600061136b61136684611318565b6112fd565b90508281526020810184848401111561138757611386611298565b5b611392848285611349565b509392505050565b600082601f8301126113af576113ae611293565b5b81356113bf848260208601611358565b91505092915050565b600080600080600060a086880312156113e4576113e3610f3a565b5b600086013567ffffffffffffffff81111561140257611401610f3f565b5b61140e8882890161139a565b955050602086013567ffffffffffffffff81111561142f5761142e610f3f565b5b61143b8882890161139a565b945050604086013567ffffffffffffffff81111561145c5761145b610f3f565b5b6114688882890161139a565b935050606061147988828901610f65565b925050608061148a88828901610f65565b9150509295509295909350565b600081519050919050565b600082825260208201905092915050565b6000819050602082019050919050565b600082825260208201905092915050565b60006114df82610fe8565b6114e981856114c3565b93506114f9818560208601611004565b6115028161102e565b840191505092915050565b600082825260208201905092915050565b60006115298261115a565b611533818561150d565b935061153e83611176565b8060005b8381101561156f57815161155688826111d3565b9750611561836111eb565b925050600181019050611542565b5085935050505092915050565b6000610120830160008301516115956000860182611186565b50602083015184820360208601526115ad82826114d4565b915050604083015184820360408601526115c782826114d4565b915050606083015184820360608601526115e182826114d4565b91505060808301516115f66080860182611195565b5060a083015161160960a0860182611195565b5060c083015161161c60c0860182611195565b5060e083015161162f60e0860182611195565b50610100830151848203610100860152611649828261151e565b9150508091505092915050565b6000611662838361157c565b905092915050565b6000602082019050919050565b600061168282611497565b61168c81856114a2565b93508360208202850161169e856114b3565b8060005b858110156116da57848403895281516116bb8582611656565b94506116c68361166a565b925060208a019950506001810190506116a2565b50829750879550505050505092915050565b600060208201905081810360008301526117068184611677565b905092915050565b7f4e487b7100000000000000000000000000000000000000000000000000000000600052602260045260246000fd5b6000600282049050600182168061175557607f821691505b6020821081036117685761176761170e565b5b50919050565b7f596f7520617265206e6f7420746865206f776e6572206f66207468697320636160008201527f6d706169676e2e00000000000000000000000000000000000000000000000000602082015250565b60006117ca602783610ff3565b91506117d58261176e565b604082019050919050565b600060208201905081810360008301526117f9816117bd565b9050919050565b7f4e487b7100000000000000000000000000000000000000000000000000000000600052601160045260246000fd5b600061183a82610f44565b915061184583610f44565b925082820390508181111561185d5761185c611800565b5b92915050565b7f54686520616d6f756e742077697468647261776e206d757374206265206c657360008201527f73207468616e206f7220657175616c20746f207468652077697468647261776e60208201527f61626c6520616d6f756e742e0000000000000000000000000000000000000000604082015250565b60006118e5604c83610ff3565b91506118f082611863565b606082019050919050565b60006020820190508181036000830152611914816118d8565b9050919050565b600061192682610f44565b915061193183610f44565b925082820190508082111561194957611948611800565b5b92915050565b7f446561646c696e65206d75737420626520696e20746865206675747572652e00600082015250565b6000611985601f83610ff3565b91506119908261194f565b602082019050919050565b600060208201905081810360008301526119b481611978565b9050919050565b7f546172676574206d75737420626520626967676572207468616e20302e000000600082015250565b60006119f1601d83610ff3565b91506119fc826119bb565b602082019050919050565b60006020820190508181036000830152611a20816119e4565b9050919050565b7f4465736372697074696f6e206d7573742062652033303020636861726163746560008201527f7273206f72206c65737300000000000000000000000000000000000000000000602082015250565b6000611a83602a83610ff3565b9150611a8e82611a27565b604082019050919050565b60006020820190508181036000830152611ab281611a76565b9050919050565b60008190508160005260206000209050919050565b60006020601f8301049050919050565b600082821b905092915050565b600060088302611b1b7fffffffffffffffffffffffffffffffffffffffffffffffffffffffffffffffff82611ade565b611b258683611ade565b95508019841693508086168417925050509392505050565b6000819050919050565b6000611b62611b5d611b5884610f44565b611b3d565b610f44565b9050919050565b6000819050919050565b611b7c83611b47565b611b90611b8882611b69565b848454611aeb565b825550505050565b600090565b611ba5611b98565b611bb0818484611b73565b505050565b5b81811015611bd457611bc9600082611b9d565b600181019050611bb6565b5050565b601f821115611c1957611bea81611ab9565b611bf384611ace565b81016020851015611c02578190505b611c16611c0e85611ace565b830182611bb5565b50505b505050565b600082821c905092915050565b6000611c3c60001984600802611c1e565b1980831691505092915050565b6000611c558383611c2b565b9150826002028217905092915050565b611c6e82610fe8565b67ffffffffffffffff811115611c8757611c8661129d565b5b611c91825461173d565b611c9c828285611bd8565b600060209050601f831160018114611ccf5760008415611cbd578287015190505b611cc78582611c49565b865550611d2f565b601f198416611cdd86611ab9565b60005b82811015611d0557848901518255600182019150602085019450602081019050611ce0565b86831015611d225784890151611d1e601f891682611c2b565b8355505b6001600288020188555050505b505050505050565b6000611d4282610f44565b91507fffffffffffffffffffffffffffffffffffffffffffffffffffffffffffffffff8203611d7457611d73611800565b5b600182019050919050565b60006020820190508181036000830152611d99818461103f565b905092915050565b7f4e487b7100000000000000000000000000000000000000000000000000000000600052603260045260246000fdfea2646970667358221220ee70f75d71c13e65e27ac5c24c885870792ef828c4692062aa4c88c9313edcff64736f6c634300081b0033",
  "linkReferences": {},
  "deployedLinkReferences": {}
}