{
  "_format": "hh-sol-artifact-1",
  "contractName": "CrowdFunding",
  "sourceName": "contracts/CrowdFunding.sol",
  "abi": [
    {
      "anonymous": false,
      "inputs": [
        {
          "indexed": true,
          "internalType": "uint256",
          "name": "campaignId",
          "type": "uint256"
        }
      ],
      "name": "CampaignClosed",
      "type": "event"
    },
    {
      "anonymous": false,
      "inputs": [
        {
          "indexed": true,
          "internalType": "address",
          "name": "owner",
          "type": "address"
        },
        {
          "indexed": true,
          "internalType": "uint256",
          "name": "campaignId",
          "type": "uint256"
        },
        {
          "indexed": false,
          "internalType": "string",
          "name": "title",
          "type": "string"
        }
      ],
      "name": "CampaignCreated",
      "type": "event"
    },
    {
      "anonymous": false,
      "inputs": [
        {
          "indexed": true,
          "internalType": "uint256",
          "name": "campaignId",
          "type": "uint256"
        },
        {
          "indexed": true,
          "internalType": "address",
          "name": "donator",
          "type": "address"
        },
        {
          "indexed": false,
          "internalType": "uint256",
          "name": "amount",
          "type": "uint256"
        }
      ],
      "name": "DonateReceived",
      "type": "event"
    },
    {
      "anonymous": false,
      "inputs": [
        {
          "indexed": true,
          "internalType": "uint256",
          "name": "campaignId",
          "type": "uint256"
        },
        {
          "indexed": true,
          "internalType": "address",
          "name": "owner",
          "type": "address"
        },
        {
          "indexed": false,
          "internalType": "uint256",
          "name": "amount",
          "type": "uint256"
        }
      ],
      "name": "Withdrawal",
      "type": "event"
    },
    {
      "inputs": [],
      "name": "campaignCount",
      "outputs": [
        {
          "internalType": "uint256",
          "name": "",
          "type": "uint256"
        }
      ],
      "stateMutability": "view",
      "type": "function"
    },
    {
      "inputs": [
        {
          "internalType": "uint256",
          "name": "",
          "type": "uint256"
        }
      ],
      "name": "campaigns",
      "outputs": [
        {
          "internalType": "address",
          "name": "owner",
          "type": "address"
        },
        {
          "internalType": "string",
          "name": "title",
          "type": "string"
        },
        {
          "internalType": "string",
          "name": "description",
          "type": "string"
        },
        {
          "internalType": "string",
          "name": "imageUrl",
          "type": "string"
        },
        {
          "internalType": "uint256",
          "name": "target",
          "type": "uint256"
        },
        {
          "internalType": "uint256",
          "name": "collectedAmount",
          "type": "uint256"
        },
        {
          "internalType": "uint256",
          "name": "withdrawedAmount",
          "type": "uint256"
        },
        {
          "internalType": "uint256",
          "name": "deadline",
          "type": "uint256"
        }
      ],
      "stateMutability": "view",
      "type": "function"
    },
    {
      "inputs": [
        {
          "internalType": "uint256",
          "name": "_id",
          "type": "uint256"
        }
      ],
      "name": "closeCampaign",
      "outputs": [],
      "stateMutability": "nonpayable",
      "type": "function"
    },
    {
      "inputs": [
        {
          "internalType": "string",
          "name": "_title",
          "type": "string"
        },
        {
          "internalType": "string",
          "name": "_description",
          "type": "string"
        },
        {
          "internalType": "string",
          "name": "_imageUrl",
          "type": "string"
        },
        {
          "internalType": "uint256",
          "name": "_target",
          "type": "uint256"
        },
        {
          "internalType": "uint256",
          "name": "_deadline",
          "type": "uint256"
        }
      ],
      "name": "createCampaign",
      "outputs": [
        {
          "internalType": "uint256",
          "name": "",
          "type": "uint256"
        }
      ],
      "stateMutability": "nonpayable",
      "type": "function"
    },
    {
      "inputs": [
        {
          "internalType": "uint256",
          "name": "_id",
          "type": "uint256"
        }
      ],
      "name": "donate",
      "outputs": [],
      "stateMutability": "payable",
      "type": "function"
    },
    {
      "inputs": [],
      "name": "getCampaigns",
      "outputs": [
        {
          "components": [
            {
              "internalType": "address",
              "name": "owner",
              "type": "address"
            },
            {
              "internalType": "string",
              "name": "title",
              "type": "string"
            },
            {
              "internalType": "string",
              "name": "description",
              "type": "string"
            },
            {
              "internalType": "string",
              "name": "imageUrl",
              "type": "string"
            },
            {
              "internalType": "uint256",
              "name": "target",
              "type": "uint256"
            },
            {
              "internalType": "uint256",
              "name": "collectedAmount",
              "type": "uint256"
            },
            {
              "internalType": "uint256",
              "name": "withdrawedAmount",
              "type": "uint256"
            },
            {
              "internalType": "uint256",
              "name": "deadline",
              "type": "uint256"
            },
            {
              "components": [
                {
                  "internalType": "address",
                  "name": "donator",
                  "type": "address"
                },
                {
                  "internalType": "uint256",
                  "name": "amount",
                  "type": "uint256"
                }
              ],
              "internalType": "struct CrowdFunding.Donation[]",
              "name": "donations",
              "type": "tuple[]"
            }
          ],
          "internalType": "struct CrowdFunding.Campaign[]",
          "name": "",
          "type": "tuple[]"
        }
      ],
      "stateMutability": "view",
      "type": "function"
    },
    {
      "inputs": [
        {
          "internalType": "uint256",
          "name": "_id",
          "type": "uint256"
        }
      ],
      "name": "getDonations",
      "outputs": [
        {
          "components": [
            {
              "internalType": "address",
              "name": "donator",
              "type": "address"
            },
            {
              "internalType": "uint256",
              "name": "amount",
              "type": "uint256"
            }
          ],
          "internalType": "struct CrowdFunding.Donation[]",
          "name": "",
          "type": "tuple[]"
        }
      ],
      "stateMutability": "view",
      "type": "function"
    },
    {
      "inputs": [],
      "name": "totalCollected",
      "outputs": [
        {
          "internalType": "uint256",
          "name": "",
          "type": "uint256"
        }
      ],
      "stateMutability": "view",
      "type": "function"
    },
    {
      "inputs": [
        {
          "internalType": "uint256",
          "name": "_id",
          "type": "uint256"
        },
        {
          "internalType": "uint256",
          "name": "_amount",
          "type": "uint256"
        }
      ],
      "name": "withdraw",
      "outputs": [],
      "stateMutability": "nonpayable",
      "type": "function"
    }
  ],
  "bytecode": "0x6080604052348015600f57600080fd5b50611e058061001f6000396000f3fe6080604052600436106100865760003560e01c8063980f2e6611610059578063980f2e6614610160578063a6b036331461019d578063b0e1c1e1146101c8578063e29eb836146101f1578063f14faf6f1461021c57610086565b8063141961bc1461008b578063441a3e70146100cf578063596d9ce2146100f85780637274e30d14610135575b600080fd5b34801561009757600080fd5b506100b260048036038101906100ad9190610f79565b610238565b6040516100c6989796959493929190611086565b60405180910390f35b3480156100db57600080fd5b506100f660048036038101906100f19190611119565b610438565b005b34801561010457600080fd5b5061011f600480360381019061011a9190610f79565b610601565b60405161012c9190611255565b60405180910390f35b34801561014157600080fd5b5061014a6106d6565b6040516101579190611277565b60405180910390f35b34801561016c57600080fd5b50610187600480360381019061018291906113c7565b6106dc565b6040516101949190611277565b60405180910390f35b3480156101a957600080fd5b506101b26108da565b6040516101bf91906116eb565b60405180910390f35b3480156101d457600080fd5b506101ef60048036038101906101ea9190610f79565b610c88565b005b3480156101fd57600080fd5b50610206610d7f565b6040516102139190611277565b60405180910390f35b61023660048036038101906102319190610f79565b610d85565b005b60026020528060005260406000206000915090508060000160009054906101000a900473ffffffffffffffffffffffffffffffffffffffff16908060010180546102819061173c565b80601f01602080910402602001604051908101604052809291908181526020018280546102ad9061173c565b80156102fa5780601f106102cf576101008083540402835291602001916102fa565b820191906000526020600020905b8154815290600101906020018083116102dd57829003601f168201915b50505050509080600201805461030f9061173c565b80601f016020809104026020016040519081016040528092919081815260200182805461033b9061173c565b80156103885780601f1061035d57610100808354040283529160200191610388565b820191906000526020600020905b81548152906001019060200180831161036b57829003601f168201915b50505050509080600301805461039d9061173c565b80601f01602080910402602001604051908101604052809291908181526020018280546103c99061173c565b80156104165780601f106103eb57610100808354040283529160200191610416565b820191906000526020600020905b8154815290600101906020018083116103f957829003601f168201915b5050505050908060040154908060050154908060060154908060070154905088565b816002600082815260200190815260200160002060000160009054906101000a900473ffffffffffffffffffffffffffffffffffffffff1673ffffffffffffffffffffffffffffffffffffffff163373ffffffffffffffffffffffffffffffffffffffff16146104dd576040517f08c379a00000000000000000000000000000000000000000000000000000000081526004016104d4906117df565b60405180910390fd5b600060026000858152602001908152602001600020905080600601548160050154610508919061182e565b83111561054a576040517f08c379a0000000000000000000000000000000000000000000000000000000008152600401610541906118fa565b60405180910390fd5b8281600601600082825461055e919061191a565b925050819055503373ffffffffffffffffffffffffffffffffffffffff166108fc849081150290604051600060405180830381858888f193505050501580156105ab573d6000803e3d6000fd5b503373ffffffffffffffffffffffffffffffffffffffff16847f37e8063b72a944a76de602f32b82fd8c2a1c6f99564c727ffaf913c7762cd420856040516105f39190611277565b60405180910390a350505050565b606060026000838152602001908152602001600020600801805480602002602001604051908101604052809291908181526020016000905b828210156106cb57838290600052602060002090600202016040518060400160405290816000820160009054906101000a900473ffffffffffffffffffffffffffffffffffffffff1673ffffffffffffffffffffffffffffffffffffffff1673ffffffffffffffffffffffffffffffffffffffff16815260200160018201548152505081526020019060010190610639565b505050509050919050565b60015481565b6000428211610720576040517f08c379a00000000000000000000000000000000000000000000000000000000081526004016107179061199a565b60405180910390fd5b60008311610763576040517f08c379a000000000000000000000000000000000000000000000000000000000815260040161075a90611a06565b60405180910390fd5b6032855111156107a8576040517f08c379a000000000000000000000000000000000000000000000000000000000815260040161079f90611a98565b60405180910390fd5b60006002600060015481526020019081526020016000209050338160000160006101000a81548173ffffffffffffffffffffffffffffffffffffffff021916908373ffffffffffffffffffffffffffffffffffffffff160217905550868160010190816108159190611c64565b50858160020190816108279190611c64565b50848160030190816108399190611c64565b508281600701819055508381600401819055506001600081548092919061085f90611d36565b919050555060018054610872919061182e565b3373ffffffffffffffffffffffffffffffffffffffff167f0ebe94f361ce4504efd3def3f3b3536780036866339485a26cf48e95ff61b6a5896040516108b89190611d7e565b60405180910390a3600180546108ce919061182e565b91505095945050505050565b6060600060015467ffffffffffffffff8111156108fa576108f961129c565b5b60405190808252806020026020018201604052801561093357816020015b610920610ecd565b8152602001906001900390816109185790505b50905060005b600154811015610c805760026000828152602001908152602001600020604051806101200160405290816000820160009054906101000a900473ffffffffffffffffffffffffffffffffffffffff1673ffffffffffffffffffffffffffffffffffffffff1673ffffffffffffffffffffffffffffffffffffffff1681526020016001820180546109c89061173c565b80601f01602080910402602001604051908101604052809291908181526020018280546109f49061173c565b8015610a415780601f10610a1657610100808354040283529160200191610a41565b820191906000526020600020905b815481529060010190602001808311610a2457829003601f168201915b50505050508152602001600282018054610a5a9061173c565b80601f0160208091040260200160405190810160405280929190818152602001828054610a869061173c565b8015610ad35780601f10610aa857610100808354040283529160200191610ad3565b820191906000526020600020905b815481529060010190602001808311610ab657829003601f168201915b50505050508152602001600382018054610aec9061173c565b80601f0160208091040260200160405190810160405280929190818152602001828054610b189061173c565b8015610b655780601f10610b3a57610100808354040283529160200191610b65565b820191906000526020600020905b815481529060010190602001808311610b4857829003601f168201915b505050505081526020016004820154815260200160058201548152602001600682015481526020016007820154815260200160088201805480602002602001604051908101604052809291908181526020016000905b82821015610c4d57838290600052602060002090600202016040518060400160405290816000820160009054906101000a900473ffffffffffffffffffffffffffffffffffffffff1673ffffffffffffffffffffffffffffffffffffffff1673ffffffffffffffffffffffffffffffffffffffff16815260200160018201548152505081526020019060010190610bbb565b5050505081525050828281518110610c6857610c67611da0565b5b60200260200101819052508080600101915050610939565b508091505090565b806002600082815260200190815260200160002060000160009054906101000a900473ffffffffffffffffffffffffffffffffffffffff1673ffffffffffffffffffffffffffffffffffffffff163373ffffffffffffffffffffffffffffffffffffffff1614610d2d576040517f08c379a0000000000000000000000000000000000000000000000000000000008152600401610d24906117df565b60405180910390fd5b6000600260008481526020019081526020016000209050428160070181905550827f5e6eb33a418de5dbbc17f989f7ae362cdfbb1748c5d603137c767027a354edbc60405160405180910390a2505050565b60005481565b60006002600083815260200190815260200160002090508060080160405180604001604052803373ffffffffffffffffffffffffffffffffffffffff16815260200134815250908060018154018082558091505060019003906000526020600020906002020160009091909190915060008201518160000160006101000a81548173ffffffffffffffffffffffffffffffffffffffff021916908373ffffffffffffffffffffffffffffffffffffffff16021790555060208201518160010155505034816005016000828254610e5b919061191a565b9250508190555034600080828254610e73919061191a565b925050819055503373ffffffffffffffffffffffffffffffffffffffff16827fd043fbd3e5b60b9520e258ac2112e48c46f68e7d1770c911ba440b91e2c8c6c534604051610ec19190611277565b60405180910390a35050565b604051806101200160405280600073ffffffffffffffffffffffffffffffffffffffff16815260200160608152602001606081526020016060815260200160008152602001600081526020016000815260200160008152602001606081525090565b6000604051905090565b600080fd5b600080fd5b6000819050919050565b610f5681610f43565b8114610f6157600080fd5b50565b600081359050610f7381610f4d565b92915050565b600060208284031215610f8f57610f8e610f39565b5b6000610f9d84828501610f64565b91505092915050565b600073ffffffffffffffffffffffffffffffffffffffff82169050919050565b6000610fd182610fa6565b9050919050565b610fe181610fc6565b82525050565b600081519050919050565b600082825260208201905092915050565b60005b83811015611021578082015181840152602081019050611006565b60008484015250505050565b6000601f19601f8301169050919050565b600061104982610fe7565b6110538185610ff2565b9350611063818560208601611003565b61106c8161102d565b840191505092915050565b61108081610f43565b82525050565b60006101008201905061109c600083018b610fd8565b81810360208301526110ae818a61103e565b905081810360408301526110c2818961103e565b905081810360608301526110d6818861103e565b90506110e56080830187611077565b6110f260a0830186611077565b6110ff60c0830185611077565b61110c60e0830184611077565b9998505050505050505050565b600080604083850312156111305761112f610f39565b5b600061113e85828601610f64565b925050602061114f85828601610f64565b9150509250929050565b600081519050919050565b600082825260208201905092915050565b6000819050602082019050919050565b61118e81610fc6565b82525050565b61119d81610f43565b82525050565b6040820160008201516111b96000850182611185565b5060208201516111cc6020850182611194565b50505050565b60006111de83836111a3565b60408301905092915050565b6000602082019050919050565b600061120282611159565b61120c8185611164565b935061121783611175565b8060005b8381101561124857815161122f88826111d2565b975061123a836111ea565b92505060018101905061121b565b5085935050505092915050565b6000602082019050818103600083015261126f81846111f7565b905092915050565b600060208201905061128c6000830184611077565b92915050565b600080fd5b600080fd5b7f4e487b7100000000000000000000000000000000000000000000000000000000600052604160045260246000fd5b6112d48261102d565b810181811067ffffffffffffffff821117156112f3576112f261129c565b5b80604052505050565b6000611306610f2f565b905061131282826112cb565b919050565b600067ffffffffffffffff8211156113325761133161129c565b5b61133b8261102d565b9050602081019050919050565b82818337600083830152505050565b600061136a61136584611317565b6112fc565b90508281526020810184848401111561138657611385611297565b5b611391848285611348565b509392505050565b600082601f8301126113ae576113ad611292565b5b81356113be848260208601611357565b91505092915050565b600080600080600060a086880312156113e3576113e2610f39565b5b600086013567ffffffffffffffff81111561140157611400610f3e565b5b61140d88828901611399565b955050602086013567ffffffffffffffff81111561142e5761142d610f3e565b5b61143a88828901611399565b945050604086013567ffffffffffffffff81111561145b5761145a610f3e565b5b61146788828901611399565b935050606061147888828901610f64565b925050608061148988828901610f64565b9150509295509295909350565b600081519050919050565b600082825260208201905092915050565b6000819050602082019050919050565b600082825260208201905092915050565b60006114de82610fe7565b6114e881856114c2565b93506114f8818560208601611003565b6115018161102d565b840191505092915050565b600082825260208201905092915050565b600061152882611159565b611532818561150c565b935061153d83611175565b8060005b8381101561156e57815161155588826111d2565b9750611560836111ea565b925050600181019050611541565b5085935050505092915050565b6000610120830160008301516115946000860182611185565b50602083015184820360208601526115ac82826114d3565b915050604083015184820360408601526115c682826114d3565b915050606083015184820360608601526115e082826114d3565b91505060808301516115f56080860182611194565b5060a083015161160860a0860182611194565b5060c083015161161b60c0860182611194565b5060e083015161162e60e0860182611194565b50610100830151848203610100860152611648828261151d565b9150508091505092915050565b6000611661838361157b565b905092915050565b6000602082019050919050565b600061168182611496565b61168b81856114a1565b93508360208202850161169d856114b2565b8060005b858110156116d957848403895281516116ba8582611655565b94506116c583611669565b925060208a019950506001810190506116a1565b50829750879550505050505092915050565b600060208201905081810360008301526117058184611676565b905092915050565b7f4e487b7100000000000000000000000000000000000000000000000000000000600052602260045260246000fd5b6000600282049050600182168061175457607f821691505b6020821081036117675761176661170d565b5b50919050565b7f596f7520617265206e6f7420746865206f776e6572206f66207468697320636160008201527f6d706169676e2e00000000000000000000000000000000000000000000000000602082015250565b60006117c9602783610ff2565b91506117d48261176d565b604082019050919050565b600060208201905081810360008301526117f8816117bc565b9050919050565b7f4e487b7100000000000000000000000000000000000000000000000000000000600052601160045260246000fd5b600061183982610f43565b915061184483610f43565b925082820390508181111561185c5761185b6117ff565b5b92915050565b7f54686520616d6f756e742077697468647261776e206d757374206265206c657360008201527f73207468616e206f7220657175616c20746f207468652077697468647261776e60208201527f61626c6520616d6f756e742e0000000000000000000000000000000000000000604082015250565b60006118e4604c83610ff2565b91506118ef82611862565b606082019050919050565b60006020820190508181036000830152611913816118d7565b9050919050565b600061192582610f43565b915061193083610f43565b9250828201905080821115611948576119476117ff565b5b92915050565b7f446561646c696e65206d75737420626520696e20746865206675747572652e00600082015250565b6000611984601f83610ff2565b915061198f8261194e565b602082019050919050565b600060208201905081810360008301526119b381611977565b9050919050565b7f546172676574206d75737420626520626967676572207468616e20302e000000600082015250565b60006119f0601d83610ff2565b91506119fb826119ba565b602082019050919050565b60006020820190508181036000830152611a1f816119e3565b9050919050565b7f4465736372697074696f6e206d7573742062652035302063686172616374657260008201527f73206f72206c6573730000000000000000000000000000000000000000000000602082015250565b6000611a82602983610ff2565b9150611a8d82611a26565b604082019050919050565b60006020820190508181036000830152611ab181611a75565b9050919050565b60008190508160005260206000209050919050565b60006020601f8301049050919050565b600082821b905092915050565b600060088302611b1a7fffffffffffffffffffffffffffffffffffffffffffffffffffffffffffffffff82611add565b611b248683611add565b95508019841693508086168417925050509392505050565b6000819050919050565b6000611b61611b5c611b5784610f43565b611b3c565b610f43565b9050919050565b6000819050919050565b611b7b83611b46565b611b8f611b8782611b68565b848454611aea565b825550505050565b600090565b611ba4611b97565b611baf818484611b72565b505050565b5b81811015611bd357611bc8600082611b9c565b600181019050611bb5565b5050565b601f821115611c1857611be981611ab8565b611bf284611acd565b81016020851015611c01578190505b611c15611c0d85611acd565b830182611bb4565b50505b505050565b600082821c905092915050565b6000611c3b60001984600802611c1d565b1980831691505092915050565b6000611c548383611c2a565b9150826002028217905092915050565b611c6d82610fe7565b67ffffffffffffffff811115611c8657611c8561129c565b5b611c90825461173c565b611c9b828285611bd7565b600060209050601f831160018114611cce5760008415611cbc578287015190505b611cc68582611c48565b865550611d2e565b601f198416611cdc86611ab8565b60005b82811015611d0457848901518255600182019150602085019450602081019050611cdf565b86831015611d215784890151611d1d601f891682611c2a565b8355505b6001600288020188555050505b505050505050565b6000611d4182610f43565b91507fffffffffffffffffffffffffffffffffffffffffffffffffffffffffffffffff8203611d7357611d726117ff565b5b600182019050919050565b60006020820190508181036000830152611d98818461103e565b905092915050565b7f4e487b7100000000000000000000000000000000000000000000000000000000600052603260045260246000fdfea26469706673582212201a59118465a95d3aef9292e618b67429923bd701dfb65f95ff98749e7b05664564736f6c634300081b0033",
  "linkReferences": {},
  "deployedLinkReferences": {}
}